{"abi":[{"type":"constructor","inputs":[{"name":"owner","type":"address","internalType":"address"},{"name":"admin","type":"address","internalType":"address"}],"stateMutability":"nonpayable"},{"type":"function","name":"DATA_PROVIDER_ROLE","inputs":[],"outputs":[{"name":"","type":"bytes32","internalType":"bytes32"}],"stateMutability":"view"},{"type":"function","name":"DEFAULT_ADMIN_ROLE","inputs":[],"outputs":[{"name":"","type":"bytes32","internalType":"bytes32"}],"stateMutability":"view"},{"type":"function","name":"VALIDATOR_ROLE","inputs":[],"outputs":[{"name":"","type":"bytes32","internalType":"bytes32"}],"stateMutability":"view"},{"type":"function","name":"addDataProvider","inputs":[{"name":"provider","type":"address","internalType":"address"}],"outputs":[],"stateMutability":"nonpayable"},{"type":"function","name":"addValidator","inputs":[{"name":"validator","type":"address","internalType":"address"}],"outputs":[],"stateMutability":"nonpayable"},{"type":"function","name":"getPrice","inputs":[{"name":"asset","type":"string","internalType":"string"}],"outputs":[{"name":"","type":"tuple","internalType":"struct PriceFeed.PriceData","components":[{"name":"price","type":"uint256","internalType":"uint256"},{"name":"timestamp","type":"uint256","internalType":"uint256"},{"name":"verified","type":"bool","internalType":"bool"}]}],"stateMutability":"view"},{"type":"function","name":"getRoleAdmin","inputs":[{"name":"role","type":"bytes32","internalType":"bytes32"}],"outputs":[{"name":"","type":"bytes32","internalType":"bytes32"}],"stateMutability":"view"},{"type":"function","name":"grantRole","inputs":[{"name":"role","type":"bytes32","internalType":"bytes32"},{"name":"account","type":"address","internalType":"address"}],"outputs":[],"stateMutability":"nonpayable"},{"type":"function","name":"hasRole","inputs":[{"name":"role","type":"bytes32","internalType":"bytes32"},{"name":"account","type":"address","internalType":"address"}],"outputs":[{"name":"","type":"bool","internalType":"bool"}],"stateMutability":"view"},{"type":"function","name":"owner","inputs":[],"outputs":[{"name":"","type":"address","internalType":"address"}],"stateMutability":"view"},{"type":"function","name":"prices","inputs":[{"name":"","type":"string","internalType":"string"}],"outputs":[{"name":"price","type":"uint256","internalType":"uint256"},{"name":"timestamp","type":"uint256","internalType":"uint256"},{"name":"verified","type":"bool","internalType":"bool"}],"stateMutability":"view"},{"type":"function","name":"renounceOwnership","inputs":[],"outputs":[],"stateMutability":"nonpayable"},{"type":"function","name":"renounceRole","inputs":[{"name":"role","type":"bytes32","internalType":"bytes32"},{"name":"callerConfirmation","type":"address","internalType":"address"}],"outputs":[],"stateMutability":"nonpayable"},{"type":"function","name":"revokeDataProvider","inputs":[{"name":"provider","type":"address","internalType":"address"}],"outputs":[],"stateMutability":"nonpayable"},{"type":"function","name":"revokeRole","inputs":[{"name":"role","type":"bytes32","internalType":"bytes32"},{"name":"account","type":"address","internalType":"address"}],"outputs":[],"stateMutability":"nonpayable"},{"type":"function","name":"revokeValidator","inputs":[{"name":"validator","type":"address","internalType":"address"}],"outputs":[],"stateMutability":"nonpayable"},{"type":"function","name":"submitPrice","inputs":[{"name":"asset","type":"string","internalType":"string"},{"name":"price","type":"uint256","internalType":"uint256"},{"name":"timestamp","type":"uint256","internalType":"uint256"}],"outputs":[],"stateMutability":"nonpayable"},{"type":"function","name":"supportsInterface","inputs":[{"name":"interfaceId","type":"bytes4","internalType":"bytes4"}],"outputs":[{"name":"","type":"bool","internalType":"bool"}],"stateMutability":"view"},{"type":"function","name":"transferOwnership","inputs":[{"name":"newOwner","type":"address","internalType":"address"}],"outputs":[],"stateMutability":"nonpayable"},{"type":"function","name":"verifyPrice","inputs":[{"name":"asset","type":"string","internalType":"string"}],"outputs":[],"stateMutability":"nonpayable"},{"type":"event","name":"OwnershipTransferred","inputs":[{"name":"previousOwner","type":"address","indexed":true,"internalType":"address"},{"name":"newOwner","type":"address","indexed":true,"internalType":"address"}],"anonymous":false},{"type":"event","name":"PriceSubmitted","inputs":[{"name":"asset","type":"string","indexed":true,"internalType":"string"},{"name":"price","type":"uint256","indexed":false,"internalType":"uint256"},{"name":"timestamp","type":"uint256","indexed":false,"internalType":"uint256"}],"anonymous":false},{"type":"event","name":"PriceVerified","inputs":[{"name":"asset","type":"string","indexed":true,"internalType":"string"},{"name":"validator","type":"address","indexed":false,"internalType":"address"}],"anonymous":false},{"type":"event","name":"RoleAdminChanged","inputs":[{"name":"role","type":"bytes32","indexed":true,"internalType":"bytes32"},{"name":"previousAdminRole","type":"bytes32","indexed":true,"internalType":"bytes32"},{"name":"newAdminRole","type":"bytes32","indexed":true,"internalType":"bytes32"}],"anonymous":false},{"type":"event","name":"RoleGranted","inputs":[{"name":"role","type":"bytes32","indexed":true,"internalType":"bytes32"},{"name":"account","type":"address","indexed":true,"internalType":"address"},{"name":"sender","type":"address","indexed":true,"internalType":"address"}],"anonymous":false},{"type":"event","name":"RoleRevoked","inputs":[{"name":"role","type":"bytes32","indexed":true,"internalType":"bytes32"},{"name":"account","type":"address","indexed":true,"internalType":"address"},{"name":"sender","type":"address","indexed":true,"internalType":"address"}],"anonymous":false},{"type":"error","name":"AccessControlBadConfirmation","inputs":[]},{"type":"error","name":"AccessControlUnauthorizedAccount","inputs":[{"name":"account","type":"address","internalType":"address"},{"name":"neededRole","type":"bytes32","internalType":"bytes32"}]},{"type":"error","name":"OwnableInvalidOwner","inputs":[{"name":"owner","type":"address","internalType":"address"}]},{"type":"error","name":"OwnableUnauthorizedAccount","inputs":[{"name":"account","type":"address","internalType":"address"}]}],"bytecode":{"object":"0x608060405234801561001057600080fd5b50604051610d37380380610d3783398101604081905261002f9161017c565b816001600160a01b03811661005e57604051631e4fbdf760e01b81526000600482015260240160405180910390fd5b6100678161007b565b506100736000826100cb565b5050506101af565b600080546001600160a01b038381166001600160a01b0319831681178455604051919092169283917f8be0079c531659141344cd1fd0a4f28419497f9722a3daafe3b4186f6b6457e09190a35050565b60008281526001602090815260408083206001600160a01b038516845290915281205460ff166101565760008381526001602081815260408084206001600160a01b0387168086529252808420805460ff19169093179092559051339286917f2f8788117e7eff1d82e926ec794901d17c78024a50270940304540a733656f0d9190a450600161015a565b5060005b92915050565b80516001600160a01b038116811461017757600080fd5b919050565b6000806040838503121561018f57600080fd5b61019883610160565b91506101a660208401610160565b90509250929050565b610b79806101be6000396000f3fe608060405234801561001057600080fd5b506004361061012c5760003560e01c8063524f3889116100ad578063a217fddf11610071578063a217fddf146102a7578063c3825f4b146102af578063c49baebe1461030d578063d547741f14610322578063f2fde38b1461033557600080fd5b8063524f388914610227578063715018a61461025e5780638da5cb5b1461026657806391d14854146102815780639f4101b31461029457600080fd5b80632f2ff15d116100f45780632f2ff15d146101c657806336568abe146101d95780633aeae31d146101ec5780634d238c8e1461020157806350910ad61461021457600080fd5b806301c5bf891461013157806301ffc9a714610146578063047564b71461016e57806320507eb514610181578063248a9ca314610194575b600080fd5b61014461013f36600461099c565b610348565b005b6101596101543660046109ea565b610410565b60405190151581526020015b60405180910390f35b61014461017c366004610a37565b610447565b61014461018f366004610a52565b61046e565b6101b86101a2366004610a8f565b6000908152600160208190526040909120015490565b604051908152602001610165565b6101446101d4366004610aa8565b610576565b6101446101e7366004610aa8565b6105a2565b6101b8600080516020610b2483398151915281565b61014461020f366004610a37565b6105da565b610144610222366004610a37565b6105fd565b61023a610235366004610a52565b610620565b60408051825181526020808401519082015291810151151590820152606001610165565b610144610691565b6000546040516001600160a01b039091168152602001610165565b61015961028f366004610aa8565b6106a5565b6101446102a2366004610a37565b6106d0565b6101b8600081565b6102f06102bd366004610a52565b80516020818301810180516002808352938301929094019190912092905281546001830154929091015490919060ff1683565b604080519384526020840192909252151590820152606001610165565b6101b8600080516020610b0483398151915281565b610144610330366004610aa8565b6106ef565b610144610343366004610a37565b610715565b600080516020610b2483398151915261036081610753565b6040805160608101825284815260208101849052600081830152905160029061038a908790610ad4565b9081526040805160209281900383018120845181559284015160018401559201516002909101805460ff19169115159190911790556103ca908590610ad4565b6040805191829003822085835260208301859052917fa171ae5ded55ad74d857c4dd4bf29cfc212bb86036df151971d0ea5771b61618910160405180910390a250505050565b60006001600160e01b03198216637965db0b60e01b148061044157506301ffc9a760e01b6001600160e01b03198316145b92915050565b600061045281610753565b61046a600080516020610b04833981519152836106ef565b5050565b600080516020610b0483398151915261048681610753565b6002826040516104969190610ad4565b9081526040519081900360200190206002015460ff16156104f75760405162461bcd60e51b8152602060048201526016602482015275141c9a58d948185b1c9958591e481d995c9a599a595960521b60448201526064015b60405180910390fd5b60016002836040516105099190610ad4565b908152604051908190036020018120600201805492151560ff1990931692909217909155610538908390610ad4565b604051908190038120338252907fe135292ba30fd77568291442fad82864dbd0edde862b12de767b17fb651424f79060200160405180910390a25050565b6000828152600160208190526040909120015461059281610753565b61059c838361075d565b50505050565b6001600160a01b03811633146105cb5760405163334bd91960e11b815260040160405180910390fd5b6105d582826107d6565b505050565b60006105e581610753565b61046a600080516020610b0483398151915283610576565b600061060881610753565b61046a600080516020610b2483398151915283610576565b610646604051806060016040528060008152602001600081526020016000151581525090565b6002826040516106569190610ad4565b908152604080519182900360209081018320606084018352805484526001810154918401919091526002015460ff1615159082015292915050565b610699610843565b6106a36000610870565b565b60009182526001602090815260408084206001600160a01b0393909316845291905290205460ff1690565b60006106db81610753565b61046a600080516020610b24833981519152835b6000828152600160208190526040909120015461070b81610753565b61059c83836107d6565b61071d610843565b6001600160a01b03811661074757604051631e4fbdf760e01b8152600060048201526024016104ee565b61075081610870565b50565b61075081336108c0565b600061076983836106a5565b6107ce5760008381526001602081815260408084206001600160a01b0387168086529252808420805460ff19169093179092559051339286917f2f8788117e7eff1d82e926ec794901d17c78024a50270940304540a733656f0d9190a4506001610441565b506000610441565b60006107e283836106a5565b156107ce5760008381526001602090815260408083206001600160a01b0386168085529252808320805460ff1916905551339286917ff6391f5c32d9c69d2a47ea670b442974b53935d1edc7fd64eb21e047a839171b9190a4506001610441565b6000546001600160a01b031633146106a35760405163118cdaa760e01b81523360048201526024016104ee565b600080546001600160a01b038381166001600160a01b0319831681178455604051919092169283917f8be0079c531659141344cd1fd0a4f28419497f9722a3daafe3b4186f6b6457e09190a35050565b6108ca82826106a5565b61046a5760405163e2517d3f60e01b81526001600160a01b0382166004820152602481018390526044016104ee565b634e487b7160e01b600052604160045260246000fd5b600082601f83011261092057600080fd5b813567ffffffffffffffff8082111561093b5761093b6108f9565b604051601f8301601f19908116603f01168101908282118183101715610963576109636108f9565b8160405283815286602085880101111561097c57600080fd5b836020870160208301376000602085830101528094505050505092915050565b6000806000606084860312156109b157600080fd5b833567ffffffffffffffff8111156109c857600080fd5b6109d48682870161090f565b9660208601359650604090950135949350505050565b6000602082840312156109fc57600080fd5b81356001600160e01b031981168114610a1457600080fd5b9392505050565b80356001600160a01b0381168114610a3257600080fd5b919050565b600060208284031215610a4957600080fd5b610a1482610a1b565b600060208284031215610a6457600080fd5b813567ffffffffffffffff811115610a7b57600080fd5b610a878482850161090f565b949350505050565b600060208284031215610aa157600080fd5b5035919050565b60008060408385031215610abb57600080fd5b82359150610acb60208401610a1b565b90509250929050565b6000825160005b81811015610af55760208186018101518583015201610adb565b50600092019182525091905056fe21702c8af46127c7fa207f89d0b0a8441bb32959a0ac7df790e9ab1a25c98926b6f6b279a7a4e2aa16012cbd36fcdc1fbdb91b92fd6dab57885c9de496473a8da26469706673582212209507fc584d8e0acce7b5e049aa7e9486101b16d5ad4904cb8f16c6e23003619c64736f6c63430008170033","linkReferences":{}},"methodIdentifiers":{"DATA_PROVIDER_ROLE()":"3aeae31d","DEFAULT_ADMIN_ROLE()":"a217fddf","VALIDATOR_ROLE()":"c49baebe","addDataProvider(address)":"50910ad6","addValidator(address)":"4d238c8e","getPrice(string)":"524f3889","getRoleAdmin(bytes32)":"248a9ca3","grantRole(bytes32,address)":"2f2ff15d","hasRole(bytes32,address)":"91d14854","owner()":"8da5cb5b","prices(string)":"c3825f4b","renounceOwnership()":"715018a6","renounceRole(bytes32,address)":"36568abe","revokeDataProvider(address)":"9f4101b3","revokeRole(bytes32,address)":"d547741f","revokeValidator(address)":"047564b7","submitPrice(string,uint256,uint256)":"01c5bf89","supportsInterface(bytes4)":"01ffc9a7","transferOwnership(address)":"f2fde38b","verifyPrice(string)":"20507eb5"},"id":32}